:1040000000200020AD410000A9410000A9410000AE
:10401000A9410000A9410000A9410000A9410000F8
:10402000A9410000A9410000A9410000A9410000E8
:10403000A9410000A9410000A9410000A9410000D8
:104040000000000000000000000000000000000070
:104050000000000000000000000000000000000060
:104060000000000000000000A94100000000000066
:10407000AD40000000000000000000000000000053
:104080000000000000000000000000000000000030
:1040900000000000B07000000000100100000000EF
:1040A0000000000000000000000000000722034B99
:1040B0009A61034A13680133136070470000084097
:1040C00008000020044A116813685B1A834200DB71
:1040D000704730BFF8E7C046080000204022184B68
:1040E00010B51A629218D96A1142FCD001221A62E4
:1040F0009218D96A1142FCD0124A0320116B802217
:10410000C9B2D2000A43DA600422196C0C241143AC
:104110001964812149009960A221C9005964996AF2
:10412000814399620121986A084398629965986A67
:10413000A0439862986A02439A62196610BDC0460D
:1041400000800C40B081E00F10B5FFF7C7FF00F012
:1041500075F80722202180200F4B40019A61996059
:104160001E39D9610D49FA2408601A6000F00AF975
:10417000A400002000F026F8094800F085F820008F
:10418000FFF7A0FF002000F02BF8064800F07CF8B5
:104190002000FFF797FFECE70000084000E100E097
:1041A000D0430000D643000000BEFEE70023034AD0
:1041B00010B51371024A1360FFF7C6FF000000201C
:1041C000008008400F2224230111114010400E3AB4
:1041D00082404B4301495B185A61704700600040C0
:1041E0000F2224230111114010400E3A82404B430C
:1041F00001495B181A6170470060004030B5020049
:104200000F24031122401C402423634300070ED4D3
:1042100008480F24250092009540214091401B182A
:104220001868A843186018680143196030BD083A3F
:104230000148EEE704600040086000409A2310B592
:104240000B4C9B00E3600423FF3363653E3B6360DC
:10425000B53B236004211D20FFF7D0FF02211E2063
:10426000FFF7CCFF1E20FFF7BBFF0523636010BDE7
:10427000004008401022034B99681142FCD098621C
:104280007047C046004008400FB4F0B500250F2429
:1042900085B00AAB40CB03933078002804D105B039
:1042A000F0BC08BC04B01847002D62D0732823D09E
:1042B00006D825285AD0702829D000250136EBE7EA
:1042C00078282AD07A28F8D1039B1A001D685B68E9
:1042D0000832EB1803920193019BAB42EDD02B788F
:1042E000274F1B09F85CFFF7C5FF2B7801352340EA
:1042F000F85CFFF7BFFFEFE7039B1A1D1D680392F1
:1043000028780028D9D00135FFF7B4FFF8E730202E
:10431000FFF7B0FF7820FFF7ADFF039B184F1D6834
:104320001A1D2B0FF85C0392FFF7A4FF2B0E2340FE
:10433000F85CFFF79FFF2B0D2340F85CFFF79AFF17
:104340002B0C2340F85CFFF795FF2B0B2340F85C08
:10435000FFF790FF2B0A2340F85CFFF78BFF2B0938
:104360002340F85C2540FFF785FF785DFFF782FF6B
:10437000A3E7252802D0FFF77DFF9FE701259DE7F2
:10438000DA4300000022104B104910B51A60196082
:104390005A6005325A60C0221201DA601522DA60D2
:1043A0000A3A5A6504211720FFF728FF012121202E
:1043B000FFF724FF04212020FFF720FF042118200D
:1043C000FFF71CFF10BDC04600C400400104000000
:1043D000646F776E0A0075700A00303132333435FD
:0B43E00036373839616263646566009F
:04000003000041AD0B
:00000001FF
